:020000040800F2
:1000000000040020011800084128000841280008C9
:10001000412800084128000841280008412800081C
:1000200041280008412800084128000871190008EB
:10003000412800084128000841280008F122000852
:1000400041280008113600088135000851350008A4
:100050004128000841280008F1370008C13700088E
:100060009137000861370008313700086125000822
:100070003125000801250008D1240008A12400082A
:100080007124000841240008A13D0008F13C00084B
:10009000913C0008313C000821380008C1360008B6
:1000A000412800084128000841280008412800088C
:1000B000E13300084128000841280008C13A00083F
:1000C000213A00084128000841280008412800087A
:1000D000412800088138000841280008412800080C
:1000E00041360008E1350008B13500084128000814
:1000F000412800084128000841280008813D0008E7
:10010000412800084128000841280008412800082B
:10011000412800084128000841280008412800081B
:1001200011240008E1230008B123000881230008FE
:1001300051230008613D00084128000841280008BB
:10014000F1340008813400085134000841280008C7
:1001500041280008412800084128000841280008DB
:10016000412800084128000841280008D12800083B
:1001700041280008412800084128000841280008BB
:1001800041280008412800084128000841280008AB
:10019000412800084128000841280008412800089B
:1018000072B6344880F3098840F20000CCF2000040
:101810004EF63471CEF200010860BFF34F8FBFF374
:101820006F8F40F20000C0F2F0004EF68851CEF209
:1018300000010860BFF34F8FBFF36F8F4FF00000C0
:10184000E1EE100A4EF63C71CEF20001086006206F
:1018500080F31488BFF36F8F01F032F801F068FD58
:101860001D481E491E4A91423CBF41F8040BFAE74D
:101870001C49184A91423CBF41F8040BFAE71A4947
:101880001A4A1B4B9A423EBF51F8040B42F8040B14
:10189000F8E700201749184A91423CBF41F8040B71
:1018A000FAE700F0D5FF01F003F8144C144DAC42F8
:1018B00003DA54F8041B8847F9E701F099F9114C51
:1018C000114DAC4203DA54F8041B8847F9E700F0E5
:1018D000E7BF0000000800205555555500000020C6
:1018E0000004002000040020A84100080008002097
:1018F00000080020000800202C0D0020001800081F
:101900000018000800180008001800080000000077
:101910002DE9F04F2DED108AC1F80CD0C3689D461B
:10192000BDEC108ABDE8F08F002383F311882846B0
:10193000A047002000F05CFF00F052FE00DFFEE751
:1019400090F87630426880F87E300649126843F09D
:10195000800310B50446CB640AB1012190470323EC
:10196000237010BD005C004000000000000000007B
:10197000064A536823F001035360EFF30983683389
:1019800083F30988002383F31188704730EF00E068
:1019900010B4202383F31188094C0A4B226819687C
:1019A000C31D23F00703891A8B429DBF9B18236038
:1019B00010460020002383F311885DF8044B704724
:1019C000CC0C0020180A00200000000000000000DD
:1019D00010B4202383F31188037F072B0ED8DFE890
:1019E00003F0270D0D2308040D08426A93680133A4
:1019F000936090E80C001A60026853604FF0FF3467
:101A0000002281680D4B446202771B689A688A4203
:101A1000FBD25A684260036000211060586081F375
:101A200011885DF8044B7047436A00221A60E5E7AD
:101A3000002383F311885DF8044B704730080020C1
:101A4000FEE700BF000000000000000000000000F2
:101A500090F86420062A38B50AD80123934013F081
:101A6000670F044611D113F0080502D1DB062ED40E
:101A700038BDC3689B695B68002BF9D1036F03B164
:101A80009847002384F8643038BD174A41681368CA
:101A90000D6823F4F04323F0400383F0100343F474
:101AA000004343F080031360136823F4904323F052
:101AB000700383F4805343F4004343F080031360C6
:101AC0000DB10521A847062384F8643038BD0523ED
:101AD00080F86430202383F3118829462A4602F0D7
:101AE0000FFA85F3118838BD005C0040000000004B
:101AF00038B590F864300446062B26D8DFE803F0AA
:101B000004263604044504002A4A416813680D6817
:101B100023F4F04323F0400383F0100343F4004325
:101B200043F080031360136823F4904323F07003A1
:101B300083F4805343F4004343F0800313600DB1FA
:101B40000521A847062384F8643038BD90F87B103F
:101B500090F87A30C26E43EA0123934206D9C368F3
:101B60001D8AB2FBF5F305FB1325ADB1032384F801
:101B70006430202383F31188002120460A4602F0B6
:101B800097F9002383F3118838BD036F03B1984799
:101B9000002384F8643038BD202383F3118829465C
:101BA0002A4602F0ADF985F31188022384F86430E7
:101BB00038BD00BF005C00400000000000000000D5
:101BC000F8B5BD4B1B6D03F1804303F5C04303EB38
:101BD000011100228B6880F8642003F1005303F5A3
:101BE000405304465B0000F1740200F17C0653F898
:101BF000041B22F8021BB242F9D163689B681BB335
:101C00002046984700B3E56E94F8743094F87B1042
:101C100094F87A2042EA0122AA423CBFE2661546C5
:101C20001B0600F19E80002D40F08C80052384F877
:101C30006430202383F31188204629462A4602F087
:101C40005FF985F31188F8BD94F8743013F06007DC
:101C500022D0994A616813680D6823F4F04323F099
:101C6000400383F0100343F4004343F08003136008
:101C7000136823F4904323F0700383F4805343F4F8
:101C8000004343F08003136015B120460521A847A7
:101C9000062384F86430F8BD94F8755003F07F0291
:101CA00042EA0525B5F5407F00F0F58016D9B5F577
:101CB000C06F00F0D78072D9B5F5106F7DD040F6B7
:101CC0000242954200F0C780B5F5006FC1D104F122
:101CD0007F0201252767A266E56697E7022D00F0DF
:101CE000F18040F2AE80B5F5807F79D0B5F5817F87
:101CF000AFD194F87620002AABD194F8781011F087
:101D00000F021AD0920002F1804202F5B84211F09F
:101D1000800F116840F0FA8001F44051B1F5405F46
:101D20000BD0136823F4F04323F0400343F4204323
:101D300043F08003136094F874300025A566E566CF
:101D4000256763E7042384F86430202383F3118834
:101D50002046A16EE26E02F0ABF8002383F31188F7
:101D6000F8BD75B1012384F86430202383F3118812
:101D70002046A16EE26E02F0C3F8002383F31188BF
:101D8000F8BD032384F86430202383F311882046B0
:101D900029462A4602F08CF885F31188F8BD40F2F6
:101DA000023295422CD0B5F5A06F7FF452AF434A72
:101DB000A766E7663D46226728E794F8762084F810
:101DC0007F20002A40F0948003222270626812680B
:101DD000002AB2D020460221904794F87430ACE734
:101DE00094F87620012A7FF434AFB4F87C20A766FB
:101DF00022F00202E76627673D46A4F87C2005E74B
:101E000094F87620002A7FF424AF94F8781011F02B
:101E10000F0292D0930003F1804303F5B843090603
:101E20001A6800F1878022F4904222F0700282F456
:101E3000805242F4004242F080021A6094F87430FA
:101E40007BE72DB902222567A666E2661546DDE628
:101E5000012D7FF4FEAE1A4AA26602250022E56635
:101E60002267D3E6626894F8790094F87830556870
:101E700094F8771094F8762043EA00232046A84788
:101E800000283FF4E6AE43680568E566A366276769
:101E900094F87430BAE694F87620012A7FF4D9AE2B
:101EA000B4F87C20A76642F00202E76627673D4649
:101EB000A4F87C20AAE600BF005C0040411900089D
:101EC000A03F000894F87820214912F0800F02F01A
:101ED0000F0251F822200ED112F440523FF4B9AE55
:101EE000B2F5805F0DD11B4AE5662767A2668DE6D5
:101EF000042222706AE712F030023FF4AAAE102AE0
:101F0000F1D0154AE5662767A2667FE601F0300149
:101F100030293FF412AF136823F4F04323F0400359
:101F200083F0200343F4004343F08003136094F8EC
:101F3000743002E722F4F04222F0400282F01002F4
:101F400042F4004242F080021A6094F87430F4E6E1
:101F5000005C004040400008B03F00080000000066
:101F6000074B30B41A6899691468087701256360D3
:101F700015771C60104630BC9A61FFF7C9BC00BFE2
:101F800030080020000000000000000000000000F9
:101F900000293ED070B5204D4368AC6984E8090043
:101FA0001C604B1C86B044602CD0EB691B489A68BF
:101FB00005949142049004D91B68891A9A688A4250
:101FC000FAD35868029001AA019302605A60039103
:101FD0009A68114C511A99604FF0FF3604206E62D6
:101FE000FFF7BEFF049B4BB1019B039A98680299CF
:101FF00002449A600B60019B59606662AB69586A43
:1020000006B070BD0420FFF7ABFFAB69586A06B09D
:1020100070BD4FF0FF30704730080020D119000824
:102020002DE9F04F83B004468B4615460193C769EE
:102030004FF0200888F311880026B146A3680BF101
:10204000010A2046FBB16269A368511C013B616132
:10205000A3609BF800301370236962699A4224BF21
:10206000E368636107B1B84789F31188013D06F160
:10207000010612D088F31188A368D3460BF1010A38
:102080002046002BDFD1204601990093FFF780FF07
:10209000009B0028D2D083F31188304603B0BDE8FE
:1020A000F08F00BF000000000000000000000000F2
:1020B0003030FFF7B5BF00BF000000000000000097
:1020C00030304FF0FF33FFF7ABBF00BF0000000020
:1020D000F8B504460F461646202383F3118803E023
:1020E000FFF756FF002819DBA56820463146002D72
:1020F000F6D06269A368511C013B6161A36017704F
:10210000236962699A4224BFE3686361E3690BB1A2
:1021100020469847002080F31188F8BD85F3118888
:10212000F8BD00BF0000000000000000000000003B
:102130003030FFF7CDBF00BF0000000000000000FE
:1021400030304FF0FF32FFF7C3BF00BF0000000088
:102150002DE9F04F044683B0894693461D46D0F8DA
:102160001C80202787F3118800260197B246B8F11A
:10217000000F05D02046C04702E0FFF709FFE0B995
:10218000A76820462946002FF7D0A269A368511CF2
:10219000013BA161A360137809F8013B2369A2699F
:1021A0009A4224BFE368A3618AF311880136B345DC
:1021B00005D0019B83F31188D9E787F31188304656
:1021C00003B0BDE8F08F00BF000000000000000079
:1021D0000C30FFF7BDBF00BF000000000000000092
:1021E0000C304FF0FF33FFF7B3BF00BF000000001B
:1021F00070B520230E46044683F31188C3692BB1C2
:10220000984703E0FFF7C4FE002815DBA5682046C9
:102210003146002DF6D0A169A36825694A1C013B0F
:10222000AA42A360A26128BFE368087828BFA3611F
:10223000002383F3118870BD85F3118870BD00BF42
:102240000C30FFF7D5BF00BF000000000000000009
:102250000C304FF0FF31FFF7CBBF00BF0000000094
:10226000002300F11802012101708261C261436004
:102270008360C36003614361036270470000000034
:10228000202383F31188124B5B6813F4006302D19F
:1022900083F311887047F1EE103AEFF309830D4A8A
:1022A0004FF08071D26843F8082C43F84C1CA3F11E
:1022B000680282F30988084A1168926989689268FD
:1022C00091428CBF054A064A43F8502C704700BF24
:1022D00000ED00E030EF00E0300800203919000880
:1022E0003C19000800000000000000000000000091
:1022F000F8B5202787F31188134DAA69136A2E4673
:1023000001331362AA6A56F81C3F0132B342AA6233
:1023100012D09C68013C9C6074B91A68D968DC6072
:102320005660EA6184F311881869884787F3118839
:10233000EB699A68002AF0D0002383F31188BDE886
:10234000F840FFF79DBF00BF3008002000000000EC
:10235000094B1968C1F3034159B10848826D10B5A2
:102360000C045C600AB1C06D9047BDE81040FFF7F7
:1023700087BFFFF785BF00BF00040240540B002059
:10238000094B1968C1F3033159B10848026D10B502
:102390000C035C600AB1406D9047BDE81040FFF748
:1023A0006FBFFFF76DBF00BF00040240540B002059
:1023B000094B1968C1F3032159B10848826C10B563
:1023C0000C025C600AB1C06C9047BDE81040FFF79A
:1023D00057BFFFF755BF00BF00040240540B002059
:1023E000094B1968C1F3031159B10848026C10B5C3
:1023F0000C015C600AB1406C9047BDE81040FFF7EB
:102400003FBFFFF73DBF00BF00040240540B002058
:1024100008B5074B196811F00F0105D0054A59603E
:10242000936B0BB1D06B9847BDE80840FFF728BF0E
:1024300000040240540B00200000000000000000D7
:10244000094B1968C1F3036159B10848026B10B513
:102450000C065C600AB1406B9047BDE81040FFF786
:102460000FBFFFF70DBF00BF00000240540B00205C
:10247000094B1968C1F3035159B10848826A10B574
:102480000C055C600AB1C06A9047BDE81040FFF7D8
:10249000F7BEFFF7F5BE00BF00000240540B00205E
:1024A000094B1968C1F3034159B10848026A10B5D4
:1024B0000C045C600AB1406A9047BDE81040FFF729
:1024C000DFBEFFF7DDBE00BF00000240540B00205E
:1024D000094B1968C1F3033159B10848826910B535
:1024E0000C035C600AB1C0699047BDE81040FFF77B
:1024F000C7BEFFF7C5BE00BF00000240540B00205E
:10250000094B1968C1F3032159B10848026910B594
:102510000C025C600AB140699047BDE81040FFF7CB
:10252000AFBEFFF7ADBE00BF00000240540B00205D
:10253000094B1968C1F3031159B10848826810B5F5
:102540000C015C600AB1C0689047BDE81040FFF71D
:1025500097BEFFF795BE00BF00000240540B00205D
:1025600008B5074B196811F00F0105D0054A5960ED
:1025700013680BB150689847BDE80840FFF780BE6C
:1025800000000240540B002000000000000000008A
:102590000E4B0F495A688368F0B48F6F4168C66864
:1025A000D0E90445D31ADB1BE4180268836045F1C7
:1025B00000058B4206F1010688BF43609342C66066
:1025C000C0E9044538BF0360F0BC7047001000E06C
:1025D00030080020000000000000000000000000A3
:1025E0000D4A106870B403689469136001260025D1
:1025F000A1685A6006779061257700E01B689A68A9
:102600008A42FBD85A6862602360214614605C608D
:1026100070BCFFF77DB900BF30080020000000004B
:1026200000228168084B10B4044602771B689A6840
:102630008A42FBD25A6862602360204614605C6064
:102640005DF8044B704700BF300800200000000018
:10265000F8B50468A04221D00E460746002502E0E6
:102660002468A7421AD0E3683343E36016B12269B5
:102670001342F5D06068A368816B027F0B430A2A7E
:1026800083630CD00B2AEBD1426A13409A42E7D104
:102690004562FFF7C5FF2468A742E4D1F8BD426A4E
:1026A0001342DDD04562FFF7BBFFF4E700000000F6
:1026B00003682BB10022026018465962FFF7B0BFD1
:1026C000704700BF00000000000000000000000094
:1026D000036970B5044643B1CE060D4606D42906FB
:1026E00027D4EA0544D4AB0561D470BD036B5B68A5
:1026F0005B68002BF3D001F09BFB23699B684BB117
:10270000052222702046012198472378052B04BF1B
:102710000223237000262661202383F311884FF0C3
:10272000FF3104F11400FFF7C3FF86F31188290677
:10273000D7D5204601F07CFB23699B684BB105226D
:1027400022702046022198472378052B04BF0223DC
:10275000237000262661202383F311884FF0FF3178
:1027600004F11400FFF7A4FF86F31188EA05BAD537
:10277000204601F05DFB23699B684BB10522227066
:102780002046032198472378052B04BF022323709A
:1027900000262661202383F311884FF0FF3104F1D6
:1027A0001400FFF785FF86F31188AB059DD5204601
:1027B00001F03EFB23699B684BB105222270204645
:1027C000042198472378052B04BF0223237000259A
:1027D0002561202383F311884FF0FF3104F11400A9
:1027E000FFF766FF85F3118870BD00BF0000000091
:1027F00038B52022034682F311880E4A9469A06AF4
:10280000636204F12805A84206D00368A362FFF7BB
:1028100007FFA06AA842F8D1637F9B0704D16369D0
:1028200022691A61226953610F20BDE83840FFF721
:1028300097BB00BF3008002000000000000000002F
:10284000FEE700BF000000000000000000000000E4
:10285000F0B4114E002506F1800796E81A00A34255
:102860000DD204391A4651F8040F42F8040BA24263
:10287000F9D3DA43144424F0030404342344F26803
:10288000934203D243F8045B9342FBD31036BE421B
:10289000E3D3F0BC704700BFC03F00080000000059
:1028A000FEE700BF00000000000000000000000084
:1028B000704700BF000000000000000000000000A2
:1028C000704700BF00000000000000000000000092
:1028D0002DE9F04FB94B5D6C6F0583B000F11481A9
:1028E0002E0500F1FD80EC0408D5B44B9A6C100461
:1028F00040F16A81B14B6FF480525A64A90509D541
:10290000AF4F7B68DB680BB138469847AB4B6FF431
:1029100000725A642A0440F1B280A94FDFF89CA2E9
:10292000B84605F00F05AC0004F1804404F5B84446
:10293000AE1CD4F8009008EB860319F0800F5F6896
:102940002FD0D7F814E02368DEF80400DEF80C106E
:10295000DEF8002023F4784323F0F003084443F426
:1029600000432360CEF80400101A00F09F803A8ADA
:10297000DEF80830824228BF02461944CEF80C2007
:10298000CEF80810284601F023FA236823F4F04318
:1029900023F0400383F0300343F4004343F080030B
:1029A000236019F4004F65D0236823F4784323F0A3
:1029B000F00343F0800319F4006F236040F0868039
:1029C000DAF85030B86903F1804303F5C04303EBF4
:1029D0000513D0F808B09A68DB68019302F100593A
:1029E000C3F3090E09F54059BEF1010F4FEA490939
:1029F00074D90BF102027146CC465CF8043B02F834
:102A0000023C02391B0A012902F8013C02F10202D0
:102A1000F3D8AEF102035B08019A013302F0010220
:102A200009EB83090BEB430B1AB1D9F800308BF893
:102A30000030B0F80C90B7F812C0816842680368A3
:102A400009F1FF37BFB271447244CEEB0303F44582
:102A5000878181604260036016D8AFB1236823F498
:102A6000904323F0700383F4405343F4004343F056
:102A700080032360DAF844502B043FF552AF03B0D3
:102A8000BDE8F04FFFF7FCBB08EB8606B8F80A205C
:102A900071680123AB40CC6822EA0303A8F80A302E
:102AA000002CE7D029464648A047E3E7444BBA68E4
:102AB0001B890121A94023EA010341490B81002A16
:102AC0003FF46FAF0846294690476AE708EB860651
:102AD000294673683A485B689847CBE77246A3E794
:102AE000374F364B79681A6C0C6842F008026FF465
:102AF000006005211A6458643970002C3FF4F3AE6D
:102B000038460321A047EEE62D4F00226FF4806087
:102B1000022158641046A7F87C2087F87E2087F8A9
:102B20007F203A817A81397007F1080307F1280282
:102B300043F8040F93424FF00001F9D17C681F4A1B
:102B4000E36887F864108B420CBF4FF41C404FF4CD
:102B50001E408026402311655164D6641064C7F876
:102B60008030136D1748F86003F1804303F5C043CC
:102B70004FF408465960D7F88000246800F1400EF1
:102B8000C7F880E01860DE60D7F8800048F2802641
:102B900000F1400EC7F880E098601660136883F477
:102BA000005383F0200343F4004343F08003136099
:102BB000002C3FF495AE0248A04791E6005C00402F
:102BC0001C0A002080410008074F1A6C79680C68C5
:102BD00022F0080204211A643970002C3FF48AAEF6
:102BE0003846A04786E600BF1C0A0020000000000F
:102BF000CC4BCD489A6A4FF0FF3100222DE9804836
:102C000099629A621C6919611A61DC68D960DA609C
:102C1000D96941F08051D961016841F48071016046
:102C2000196A01F44071B1F5007F89B003D04FF407
:102C3000803119621A62BB4B1A6A120407D41A6AED
:102C400042F400721A621A6A42F400421A62B74AE7
:102C5000B74800231360B74A19465468216040F80A
:102C6000331001330C2B02F114024FF00004F4D1A5
:102C7000DFF80CA3DFF80C93AA4DDFF80C83DFF824
:102C80000CB3AD4FAD4AAE48DFF804E3DFF804C340
:102C9000AC4BAD494FF0FF36CAF80460C9F8046088
:102CA000AE69DFF8F4A2DFF8F49246F00106AE61F7
:102CB000D8F8006046F02006C8F800606E694FF052
:102CC000904846F4FC066E614FF6FF76C8F8044063
:102CD000C8F808B0C8F80CA0C8F81460C8F820906C
:102CE0009A4EDFF8BCB24FF46E29C8F82490C8F8A9
:102CF00000604FF2C008C0267E604FF08849C7F8D8
:102D000008804FF6FF764AF28008C7F80CC04FF0F3
:102D1000704A7E61C7F820907C62DFF88892C7F81D
:102D200000804FF055388A4F4460C0F808A0C0F8C2
:102D30000C90DFF874A246614FF0FF090462446210
:102D40000460CEF804408348CEF80840CEF80C80EA
:102D5000CEF814604FF00F08CEF82040CEF8244093
:102D6000CEF800405460DFF844E297607A4FC2F832
:102D70000CA0C2F8149014625462106001910846CD
:102D80005C60C3F80880C3F80CE05E61734E1C629F
:102D90005C621C60DFF818A23C60FFF761FA0199E1
:102DA0006F4FDFF81092C1F82C90A6F18C0342F21D
:102DB0008A580B6350464FF0A0438B62C1F83480B1
:102DC000FFF74EFA674BCAF82C905846CAF8348081
:102DD000CAF82830CAF83060FFF742FADFF8D8A105
:102DE0006149CBF8348006F150033846CBF82810FF
:102DF000CBF83030CBF82CA0FFF732FA5B49C7F89C
:102E00002CA050234FF4802E81F812334FF4004C45
:102E1000C1F880E1C1F800E04FF0005E81F82F3387
:102E2000C1F884C1C1F804C081F83D33C1F884E120
:102E3000C1F804E06B69C7F8348043F080536B61DC
:102E4000AB6A4B48B8624FF4803C43F08053AB62AE
:102E5000AC62C9F808C06B69464A4748546023F021
:102E600080536B61D5F81490DFF850E1434BDFF8E5
:102E7000508149F00059C5F81490D5F8289049F0D0
:102E80000059C5F82890AC62CAF808C0D5F814906B
:102E9000DFF830C129F00059C5F8149006F1140983
:102EA000C7F8309002F1080702F1100A9760D76066
:102EB00001271770C2F810A0D5F81C90C2F814A012
:102EC00049F00079C5F81C90D0F80092D0624FEA22
:102ED00019494FEA094949F4606949EA0709C0F804
:102EE0000092C0F84042C0F84442C0F80442C0F822
:102EF0001442C0F80C72C0F81C72D0F80092CEF8E0
:102F0000044029F00109C0F80092E869CEF81440A5
:102F100020F00070E86102F11805956102F11C05CE
:102F2000D56151E00010024000700040D00C00203C
:102F3000540B0020704000080004004800100048B6
:102F40000008004800140048EC0B002000A8802A6C
:102F5000C000FFFF40005555B40B0020FC400008A6
:102F6000940C0020000100500004005000E100E03B
:102F7000000500500008002000640040D00A002036
:102F800000000240000402400000014000FCC03C80
:102F9000000C004815055555541115640000505596
:102FA0005C0C0020555555051555150150555555C6
:102FB000240C00200003005000070050F80C0020F3
:102FC0004C0B0020D00B002002F12005156202F10D
:102FD0002405556202F1280518469562A6F11402EF
:102FE000A6F1280BCEF82820DFF81C93B74DCEF8B9
:102FF00030500EF10C02CEF82CB0CEF80C20CEF8EA
:1030000010208EF80070CEF81C4088F80070C8F8C8
:1030100004408CF80070CCF8044040F8049BDFF8C2
:10302000ECA25C6110254FF004094FF080486FF06E
:103030003F0B9D63CCF80C401F729C62DB621B65EA
:10304000A34A81F825B303F1740E58608CF81090F0
:10305000CCF818804FF0200903F10C089D4DDFF8E3
:10306000B0B29D48C3F840E0DD6403F1640EC3F8DC
:1030700074B0986703F1540CC1F8849103F13005E2
:10308000C3F80C800AF10C0BC1F804909348C3F804
:103090001080A6F1780941F20A01643E41F2180855
:1030A000C3F81CE0C3F83CE0C3F848E0C3F844E0D0
:1030B000C3F818C0C3F824C0C3F820C01D635D6303
:1030C0008AF80070CAF80440CAF80840CAF80CB080
:1030D000A646CAF810B002F12803CAF82810CAF8A8
:1030E0001440CAF81C00CAF82090CAF82460CAF834
:1030F0002C801770546002F1440143F804EF8B42B6
:103100004FF00005C3F81CE0F7D1754B75481581E9
:103110004FF0070C4FF0800E41F61F48C0F80480B6
:103120008560C0F800C083F823E09D60D8686E49D0
:1031300055814FF6FF0202406C4E6D4C6D4FDFF82B
:10314000D4A1DFF8D4B11143D960F268646042F0D1
:103150008072F2603A68A56042F0010210202026D9
:103160003A6004F11C01D8774FF0FF3283F82260F7
:1031700002A84FF000084FF000092460E1612162CD
:1031800062620292CDE90689039504950595246152
:103190006461A562A56700F06BFE02A8FFF7F8F96D
:1031A000554B5648564AD4F814E0049FDFF86C910A
:1031B000A76703F110084FF0400C04F1300101271C
:1031C000C3F81080C3F81480C4F838C0C4F870C0C5
:1031D00020F0070004F15C0C22F0070204F158080B
:1031E00084F84D50E566A5662565A5642464C4F899
:1031F00044E09D6184F84E70CAF80000CEF81010CB
:103200009D60DD60C3F800B06161A16184F84C701D
:10321000C4F85880C4F85CC0C4F860C0C9F8002085
:103220004FF0020A85F3118862B6A369354A9A61A4
:1032300086F31188A369C4F8887099686669DFF815
:10324000E080DFF8E0C0C4F8C85104F1800204F166
:10325000AC0004F5C27904F1A80E84F89CA084F8AF
:103260009D50C4F8C070C4F8BC50C4F8B850C4F83D
:10327000A05084F89E70C4F89850C4F89040C4F8E8
:103280008C90C4F8C481C4F8E4C1C4F8946032617D
:103290006261C4F8A450C4F8A8E0C4F8AC00C4F853
:1032A000B00081B184F89C5023461B6899680029BE
:1032B000FBD15868C4F88400C4F8803002605A60BA
:1032C00081F31188FEE71977FEE700BF0054004044
:1032D0001C0A0020D13300080051250200300140B3
:1032E00000ED00E010E000E00003FA05F0ED00E082
:1032F00030080020001000E0D80C0020370D00201E
:1033000000A000206041000850400008A00A0020F2
:1033100000380140CC0C002091190008180A002048
:10332000411A0008291900080000000000000000F0
:1033300024490B6843F001030B600A68214B900796
:10334000FBD55A6822F003025A605A685A6019463F
:103350004B681C4A13F00C03FAD1116801F0F90113
:1033600011605360136843F4803313601168154B88
:103370008903FBD55A6A42F001025A621A46516A21
:10338000104B8807FBD5104A5A604FF40451302285
:10339000D9621A631A6842F080721A601968094A81
:1033A0008901FBD5094B12211960536843F00203D0
:1033B00053605368034903F00C03082BF9D10B6BDE
:1033C0000B6370470010024000241D0000200240E3
:1033D000024A136843F080031360704700380140CD
:1033E00038B5174DAB691A69DC681440E2B2D243B4
:1033F0001A61A30704D56B681B690BB1284698476F
:10340000600704D56B689B690BB10D48984721078D
:1034100004D56B681B6A0BB109489847E20604D5CE
:103420006B689B6A0BB106489847E30704D56B6845
:103430009B680BB102489847BDE83840FEF720BFB3
:10344000D00B002000000000000000000000000081
:10345000084A08B5536B136803F0020353632BB19A
:10346000054843682121D3F80C319847BDE808404E
:10347000FEF706BF000401404C0B002000000000D6
:10348000164A536911680B4010B503F040445B00C5
:10349000546113D4002C19DB104A516B136A0B4092
:1034A00003F0010353632BB10D4843682021D3F887
:1034B00004319847BDE81040FEF7E2BE0848436873
:1034C0001E21D3F8F4309847002CE5DA044843680D
:1034D0001F21D3F8FC309847DEE700BF000401400D
:1034E0004C0B002000000000000000000000000065
:1034F000124A1349536910B514681C4021405161A8
:10350000A10214D462020BD4A30005D50D48436870
:103510001D21D3F8EC309847BDE81040FEF7B0BE4F
:10352000084843681621D3F8B4309847ECE70548BB
:1035300043681521D3F8AC309847E3E70004014015
:10354000000060204C0B0020000000000000000084
:10355000094A08B5516913680B4003F4801353619D
:103560002BB1064843681421D3F8A4309847BDE82E
:103570000840FEF785BE00BF000401404C0B002050
:10358000094A08B5516913680B4003F400235361DD
:103590002BB1064843681321D3F89C309847BDE807
:1035A0000840FEF76DBE00BF000401404C0B002038
:1035B000094A08B5516913680B4003F4802353612D
:1035C0002BB1064843681221D3F894309847BDE8E0
:1035D0000840FEF755BE00BF000401404C0B002020
:1035E000094A08B5516913680B4003F4003353616D
:1035F0002BB1064843681121D3F88C309847BDE8B9
:103600000840FEF73DBE00BF000401404C0B002007
:10361000094A08B5516913680B4003F480335361BC
:103620002BB1064843681021D3F884309847BDE891
:103630000840FEF725BE00BF000401404C0B0020EF
:103640001D4B10B55A691C68144004F47C425A6141
:1036500062052AD4230522D4E0041AD4A10412D48A
:1036600062040AD4230404D5144843680F21DB6F95
:103670009847BDE81040FEF703BE104843680E218E
:103680005B6F9847EEE70D4843680D21DB6E984766
:10369000E6E70A4843680C215B6E9847DEE7074877
:1036A00043680B21DB6D9847D6E7044843680A213D
:1036B0005B6D9847CEE700BF000401404C0B002033
:1036C000194B10B55A691C68144004F478725A6199
:1036D000A30622D460061AD4210612D4E2050AD425
:1036E000A30504D5114843680921DB6C9847BDE860
:1036F0001040FEF7C5BD0D48436808215B6C984734
:10370000EEE70A4843680721DB6B9847E6E707487E
:10371000436806215B6B9847DEE704484368052150
:10372000DB6A9847D6E700BF000401404C0B00203D
:10373000084A08B5516913680B4003F01003536140
:1037400023B10548436804215B6A9847BDE80840F7
:10375000FEF796BD000401404C0B00200000000065
:10376000084A08B5516913680B4003F00803536118
:1037700023B1054843680321DB699847BDE8084049
:10378000FEF77EBD000401404C0B0020000000004D
:10379000084A08B5516913680B4003F004035361EC
:1037A00023B10548436802215B699847BDE808409A
:1037B000FEF766BD000401404C0B00200000000035
:1037C000084A08B5516913680B4003F002035361BE
:1037D00023B1054843680121DB689847BDE80840EC
:1037E000FEF74EBD000401404C0B0020000000001D
:1037F000084A08B5516913680B4003F0010353618F
:1038000023B10548436800215B689847BDE808403C
:10381000FEF736BD000401404C0B00200000000004
:1038200038B5154DEB6A5C685C60220711D46307FC
:103830000BD5EA6A2023916983F311880F480904A4
:10384000FEF706FF002383F31188BDE83840FEF73A
:1038500017BD1A68284622F00202032100F8281B2F
:1038600020211A6081F311880021FEF7F1FE002368
:1038700083F31188DBE700BF000800202008002048
:103880002DE9F041634D6E6F3768F46934622207A9
:1038900054D1E30546D4A00618D4390601D5220632
:1038A00067D463060ED5202383F311886A6CAB6C52
:1038B00058489A4200F08A8027F04007376000237A
:1038C00083F31188BDE8F041FEF7DABC202383F3CF
:1038D0001188B28C6B695FFA82F8002B7FD02B6A5B
:1038E0006A6A4C4893427FD06A694A490132581C3F
:1038F0006A61286283F800802A6AEB699A4262D280
:103900004449EB6801F10C02934207D01868C86083
:103910000021426018465962FEF782FE002383F3BD
:103920001188BAE7202383F311883B484FF40071D4
:10393000FEF78EFE002383F31188ACE714F0080F26
:103940000CBF00218021E30748BF41F02001A00700
:1039500048BF41F04001620748BF41F48071202315
:1039600083F311882C48FEF773FE002383F311883C
:103970008FE7202383F31188AB6C6A6C25489A4249
:103980003BD0AA6B2349581C0132AA63A86493F860
:1039900000802B6C984201D3CB6B8B641D492B6B41
:1039A00001F13002934207D0186808630021426099
:1039B00018465962FEF734FE1FFA88F33385002358
:1039C00083F311886DE78B690B6299E7836B002B9A
:1039D0003FF472AF04301021FEF73AFE6CE70E4858
:1039E0000421FEF735FE7AE74269002A3FF47CAFF6
:1039F00004308021FEF72CFE90E7826B002AC0D0B5
:103A000004300821FEF724FE27F0C00343F04003F2
:103A10003360D4E7D00A0020D40A00200000000060
:103A2000254AF8B5146BD36AA169906A5E68456847
:103A3000D3F800E0076801F47C5CC4F81CC034686B
:103A400024F00F0434601C7C0F2303FA04F4CEF836
:103A500004402C6824F00F042C60007C83407B60C1
:103A60009368CE0544BF43F0010393608D0544BFC6
:103A700043F0020393604C0516D543F00803C804D5
:103A8000936002D543F020039360202383F31188D1
:103A90000A486FF00101FEF70BFE002383F3118843
:103AA000BDE8F840FEF7ECBBC904EBD4002BECD129
:103AB000BDE8F840FEF7E4BBF80C0020140D002030
:103AC000F8B5564D2C6BA36903F0FE02E26113F0CA
:103AD000100231D1190609D52B78032B00F0818013
:103AE00000F036FABDE8F840FEF7CABB5B06F9D530
:103AF0002B78032B56D0AB6A93E803000A6822F0B8
:103B00000F020A601A7C0F2393404360636843F4FA
:103B100080436360236823F040032360202383F302
:103B200011883F480021FEF7C3FD002383F311886D
:103B3000BDE8F840FEF7A4BBEB6AA96A5F684E686F
:103B40003868D3F800C0D1F800E0AA6820F00F0070
:103B50003860187C0F2303FA00F0CCF804003068BA
:103B600020F00F003060097C8B40CEF80430636891
:103B700042F0040243F48043AA606360236823F0A8
:103B800046032360202383F311886FF0010105F1C0
:103B90001C00FEF78DFD002383F31188BDE8F8407B
:103BA000FEF76EBBEB6AA86A59681E680A6840682F
:103BB00022F00F020A601A7C0F239340736043685F
:103BC000002BA3D000F0C4F9AB6A5A68136843F025
:103BD000010313606368042243F4005363602A7096
:103BE00080E7EB6A68685B6880685B68616821F001
:103BF000FF71FF2B21F4803194BF1B044FF47F032E
:103C000041EA000143EA010388BF4FF080721A4382
:103C10006260BDE8F840FEF733BB00BFF80C00203F
:103C2000140D002000000000000000000000000053
:103C300038B5154DEB6A1C69A20711D1E3060BD507
:103C4000EB6A10211961202383F311880F48FEF7D6
:103C5000FFFC002383F31188BDE83840FEF710BB5A
:103C60005A6922F010025A61202383F3118805F16A
:103C7000100000F005F905F118000221FEF7E8FC3C
:103C8000002383F31188D9E70008002020080020D2
:103C900038B5154DEB6ADC68A20711D1E3060BD5E8
:103CA000EB6A1021D960202383F311880F48FEF7B7
:103CB000CFFC002383F31188BDE83840FEF7E0BA5B
:103CC0005A6922F002025A61202383F3118805F118
:103CD000100000F0D5F805F118000121FEF7B8FC3E
:103CE000002383F31188D9E7000800202008002072
:103CF000184BDA6A936810B513F00104936005D08D
:103D000013F00C0F14BF4FF480340124D90506D5ED
:103D100013F4406F14BF44F4003444F00204DA0397
:103D200006D513F4402F14BF44F4802444F0040457
:103D3000202383F31188084800F0A2F821460748A1
:103D4000FEF786FC002383F31188BDE81040FEF7E0
:103D500097BA00BF00080020080800201C080020B7
:103D600008B5054B054819681960FEF7B1FCBDE8B8
:103D70000840FEF785BA00BF00050050940C0020F3
:103D800008B5054B054819681960FEF7A1FCBDE8A8
:103D90000840FEF775BA00BF000400505C0C00201C
:103DA00008B54FF0A043074819681960FEF790FC6A
:103DB000054B064819681960FEF78AFCBDE8084003
:103DC000FEF75EBAEC0B002000010050240C00202E
:103DD000144B1B6D03F1804303F5C04303EB00104C
:103DE000002A0368426003F1005303F540534FEA91
:103DF000430316DD10B4541E6408043303EB84043B
:103E0000023100E0043311F8022C11F8010CA34236
:103E100042EA002243F8042C01F10201F2D15DF8DC
:103E2000044B7047005C00400000000000000000F0
:103E3000016B826A30B44C680D68206820F00F0076
:103E40002060097C0F238B406B609368590706D56F
:103E5000936843F0100393609368DB06FCD430BC96
:103E6000704700BF000000000000000000000000DC
:103E7000014B5B6883607047001000E000000000A9
:103E800038B5036883420BD0044600251A682260C7
:103E9000184654605D62FEF7C3FB2368A342F5D168
:103EA00038BD00BF0000000000000000000000005E
:103EB00070B4C5684489AB6944F0010400264481AC
:103EC000996083E84400A2B1698A481E0244B2FBAB
:103ED000F1F29A81084A136823F4904323F07003A7
:103EE00083F4405343F4004343F08003136070BCF9
:103EF000704701229A81EDE7005C0040000000005D
:103F0000C36870B51C8A5B6916460289B44228BF33
:103F1000344642F00102002502812246DC609960AD
:103F20001E605D602846FFF753FF074A136823F4BD
:103F3000F04323F0400383F0300343F4004343F0A5
:103F40008003136070BD00BF005C004000000000F3
:103F50000F4A936A5B685B6830B4FF2B156B98BFA0
:103F6000190453686A689C6822F0FF7323F4803355
:103F700044F4806294BF00204FF0807043EA020353
:103F800088BF4FF47F0103430B436B6030BC704725
:103F9000F80C0020000000000000000000000000FD
:103FA0000000000000000000000000000000000011
:103FB0000000000000000000000000000000000001
:103FC000A84100082C0D00202C0D00202C0D0020F5
:103FD000A8410008000000000000000000000000F0
:103FE000A8410008000000000000000000000000E0
:103FF000A8410008000000000000000000000000D0
:10400000A84100080000001000000010000000108F
:10401000A8410008000000000000000000000000AF
:10402000A84100080000000000000000000000009F
:10403000A84100080000000000000000000000008F
:10404000010000000000000000000000000000006F
:10405000C1200008E1210008412100085122000888
:104060003121000841220008B1200008D1210008B8
:1040700000000240080002400100000000000000B3
:1040800000000B00000002401C0002400200000083
:104090000000000004010C0000000240300002405B
:1040A000040000000000000008020D0000000240B3
:1040B0004400024008000000000000000C030E0055
:1040C0000000024058000240100000000000000004
:1040D00010040F00000002406C00024020000000AD
:1040E00000000000140510000000024080000240A3
:1040F000400000000000000018061100000402400B
:1041000008040240800000000000000000073800A2
:10411000000402401C0402400001000000000000F6
:10412000040839000004024030040240000200008C
:104130000000000008093A00000402404404024064
:1041400000040000000000000C0A3B0000040240D4
:10415000580402400008000000000000100B3C0062
:104160006D61696E00164318040448080C10141899
:10417000001C1D1E002000000000000000000000C8
:1041800000000000C11B0008F11A0008511A0008C5
:1041900040004000B80B0020B80B002001000000D8
:0441A000C80B002028
:0400000508001801D6
:00000001FF
